:020000040000FA
:10000000680100206D020000710200007302000010
:10001000750200007502000075020000000000007B
:100020000000000000000000000000007502000059
:10003000750200000000000075020000750200005B
:1000400075020000750200007502000075020000D4
:1000500075020000750200007502000075020000C4
:1000600075020000750200007502000075020000B4
:1000700075020000750200007502000075020000A4
:100080007502000075020000750200007502000094
:100090007502000075020000750200007502000084
:1000A0007502000075020000750200007502000074
:1000B0007502000075020000750200007502000064
:1000C0007502000075020000750200007502000054
:1000D0007502000075020000750200007502000044
:1000E0007502000075020000750200007502000034
:1000F0007502000075020000750200007502000024
:100100007502000075020000750200007502000013
:100110007502000075020000750200007502000003
:1001200075020000750200007502000075020000F3
:1001300075020000750200007502000075020000E3
:1001400000000000000000000000000000000000AF
:1001500075020000750200007502000075020000C3
:10016000000000000000000000000000000000008F
:10017000000000000000000000000000000000007F
:10018000000000000000000000000000000000006F
:10019000000000000000000000000000000000005F
:1001A000000000000000000000000000000000004F
:1001B0007502000075020000750200007502000063
:1001C0007502000075020000750200007502000053
:1001D0007502000075020000750200007502000043
:1001E0007502000075020000750200007502000033
:1001F0007502000075020000750200007502000023
:100200007502000075020000750200000000000089
:100210007502000075020000750200007502000002
:1002200075020000750200007502000075020000F2
:1002300075020000750200007502000075020000E2
:1002400075020000750200007502000075020000D2
:1002500075020000750200007502000075020000C2
:1002600075020000750200007502000000F004B87D
:10027000FEE7FEE7FEE7000000F002F800F03AF8C3
:100280000AA090E8000C82448344AAF10107DA45F1
:1002900001D100F02FF8AFF2090EBAE80F0013F009
:1002A000010F18BFFB1A43F0010318478401000037
:1002B000A4010000103A24BF78C878C1FAD85207C8
:1002C00024BF30C830C144BF04680C6070470000D0
:1002D0000023002400250026103A28BF78C1FBD84F
:1002E000520728BF30C148BF0B6070471FB51FBD04
:1002F00010B510BD00F01DF81146FFF7F7FF00F034
:1003000053F800F03BF803B4FFF7F2FF03BC00F032
:1003100043F8000002480349014A034B70470000BC
:1003200068000020680100206800002070477047C6
:100330007047754600F02CF8AE46050069465346F6
:1003400020F00700854618B020B5FFF7E3FFBDE8B1
:1003500020404FF000064FF000074FF000084FF02C
:10036000000B21F00701AC46ACE8C009ACE8C009BD
:10037000ACE8C009ACE8C0098D46704710B504462A
:10038000AFF300802046BDE81040FFF7BCBF00007F
:10039000004870470400002001491820ABBEFEE76A
:1003A000260002007047000030200C4988630024BA
:1003B00005E000F017F80A490855601CC4B2042C87
:1003C000F7D309E0002405E00549085D00F020F8B6
:1003D000601CC4B2042CF7D3F4E7000000C0004056
:1003E0000000002008B500BF0848006C00F01000B5
:1003F0000028F9D005480068C0B2009010200349D9
:100400004864002008609DF8000008BD00C000405E
:100410000649086000BF0549096C01F02001002968
:10042000F9D02021014A51647047000000C000400B
:10043000500400000000002004000000B40200008E
:10044000540400000400002064010000D0020000F9
:0404500000000000A8
:040000050000026D88
:00000001FF
